:100000000C942B050C9453050C9453050C94530538
:100010000C9453050C9453050C9453050C94530500
:100020000C9453050C9453050C9453050C945305F0
:100030000C9453050C9453050C9453050C945305E0
:100040000C942B2E0C9453050C94F92D0C94D32D59
:100050000C9453050C9453050C9453050C945305C0
:100060000C94752E0C9453050A73732068686D6D9B
:100070002068686D6D2068686D6D203D3D3D3D3D9B
:100080003D3D3D2073657420736869667420746912
:100090006D65000A73742061616161616120626253
:1000A0006262626220636363636363203D3D207329
:1000B00065742074617267657420666F7220656173
:1000C0006368207368696674000A6372203D3D3D71
:1000D0003D3D3D3D3D3D3D3D3D3D3D3D3D3D3D3D50
:1000E0003D3D3D3D20726573657420636F756E7490
:1000F000657220746F20302E000A6365206E6E6E6C
:100100006E6E6E203D3D3D3D3D3D3D3D3D3D3D3DA9
:100110003D3D3D3D206564697420636F756E746577
:10012000722076616C7565000A69203D3D3D3D3D5C
:100130003D3D3D3D3D3D3D3D3D3D3D3D3D3D3D3DEF
:100140003D3D3D20696E697420616C6C2064617472
:1001500061000A7472203D3D3D3D3D3D3D3D3D3DCC
:100160003D3D3D3D3D3D3D3D3D3D3D3D3D2072657F
:100170006164207468652063757272656E742074A2
:10018000696D65000A747720797979796D6D646499
:100190002068686D6D7373206477203D3D3D3D2080
:1001A0007772697465207468652063757272656E14
:1001B0007420646174652C2074696D6520616E64BF
:1001C00020646179206F66207765656B2028312D6A
:1001D0003729000A3F203D3D3D3D3D3D3D3D3D3DF4
:1001E0003D3D3D3D3D3D3D3D3D3D3D3D3D3D206831
:1001F000656C70202D2074686973206D6573736160
:100200006765000A202A2A2A2A2A2A2A2A2A2A2A2A
:100210002A2A2A2A2A2A2A2A2A2A2A2A2A2A2A2A3E
:100220002A2A2A2A2A2A2A2A2A2A2A2A2A2A2A2A2E
:100230002A2A2A2A2A2A2A2A2A2A2A2A2A2F000A63
:10024000202A205B584A582054454348207C2030BF
:1002500038353620393433392039343439207C204C
:1002600061677573626173617269323940676D618C
:10027000696C2E636F6D5D202A000A2F2A2A2A2AB4
:100280002A2A2A2A2A2A2A2A2A2A2A2A2A2A2A2ACE
:100290002A2A2A2A2A2A2A2A2A2A2A2A2A2A2A2ABE
:1002A0002A2A2A2A2A2A2A2A2A2A2A2A2A2A2A2AAE
:1002B0002A2A2A2A000A000A000A52657365742055
:1002C000436F756E74657220746F20302E000A5370
:1002D00075636365737366756C6C792073657420E0
:1002E0006461746120746F20454550524F4D000A7F
:1002F00054696D652053686966742033206D696E9A
:10030000757465203A20000A54696D652053686948
:100310006674203320686F7572203A20000A546991
:100320006D652053686966742032206D696E75743E
:1003300065203A20000A54696D6520536869667427
:10034000203220686F7572203A20000A54696D656A
:100350002053686966742031206D696E757465205C
:100360003A20000A54696D6520536869667420312B
:1003700020686F7572203A20000A546172676574B4
:100380002053686966742033203A20000A54617251
:100390006765742053686966742032203A20000A29
:1003A0005461726765742053686966742031203A1D
:1003B00020000A5375636365737366756C6C7920EE
:1003C00067657420646174612066726F6D204545B5
:1003D00050524F4D00000000002300260029000A63
:1003E000436F756E746572203A200000003A003A3F
:1003F0000020002D002D00000A54696D65202D207D
:100400000000000000250028002B0000000008006C
:100410000201000003040700000000000000003A91
:10042000000A20456570726F6D20697320657869D8
:1004300073747320696E2061646472657373203015
:10044000782500203A20000A456570726F6D20699A
:100450007320656D70747920696E206164647265C3
:1004600073732030780000000000240027002A0069
:10047000010204081020408001020408102001023B
:100480000408102004040404040404040202020208
:1004900002020303030303034602000000FF0800F7
:1004A000053E5B4F5B3E053E6B4F6B3E051C3E7C45
:1004B0003E1C05183C7E3C18051C577D571C051C2E
:1004C0005E7F5E1C0400183C1805FFE7C3E7FF04CD
:1004D0000018241805FFE7DBE7FF0530483A060E51
:1004E00005262979292605407F05050705407F0552
:1004F000253F055A3CE73C5A057F3E1C1C08050871
:100500001C1C3E7F0514227F221405FFFFFFFFFF06
:1005100005F0F0F0F0F003FFFFFF05000000FFFF23
:10052000050F0F0F0F0F0508047E04080510207E2D
:1005300020100508082A1C0805081C2A080805AA16
:10054000005500AA05AA55AA55AA0530383E3830EC
:1005500005060E3E0E06020000015F0307000705B8
:10056000147F147F1405444AFF4A3205631308645C
:10057000630536494936480107033E41410341417D
:100580003E05082A1C2A080508083E08080260E003
:100590000408080808026060056010080403053EAE
:1005A0005149453E0304027F0571494949460541C9
:1005B00049494936050F0808087F054F494949311F
:1005C000053E4949493005030101017F0536494986
:1005D000493605064949493E026C6C026CEC030839
:1005E00014220414141414032214080501590909CF
:1005F00006053E415D594E057E0909097E057F4984
:10060000494936053E41414141057F4141413E0551
:100610007F49494941057F09090901053E41414991
:1006200079057F0808087F03417F4105304141413A
:100630003F057F08142241057F40404040057F026E
:100640000C027F057F0408107F053E4141413E05B5
:100650007F09090906053E4141617E057F09192987
:10066000460546494949310501017F0101053F40E1
:1006700040403F051F2040201F053F4038403F05B8
:1006800063140814630503047804030561514945A4
:1006900043037F41410503040810600341417F0586
:1006A00004020102040480808080030102040438F3
:1006B00044447C047F44443804384444440438446B
:1006C000447F043854545804047E05010418A4A43B
:1006D0007C047F040478017D0384857C047F1028DA
:1006E00044017F057C04780478047C040478043891
:1006F00044443804FC24241804182424FC047C04F6
:100700000408045854543403047F04043C40407CDF
:10071000041C20407C053C4030403C046C10106CB4
:10072000041CA0A07C046454544C040836414101CC
:100730007F04414136080402010201057F41414125
:100740007F053E55555541053844443844057C2ABB
:100750002A3E14057E0202060605027E027E02057E
:100760006355494163053844443C0405407E201EDE
:10077000200506027E0202086313086463006060BD
:10078000052A2A2A2A2A03514A4403444A510500C9
:1007900000FF010303E080FF053612362436030212
:1007A0000502021818021010053040FF0101041F55
:1007B00001011E000000000901017F017F020C02FF
:1007C0007F0000000000000100017D0418247E2449
:1007D00004447E454105221C141C2205012A7C2A62
:1007E000010177044E55553903020002077E81BD91
:1007F000A5A5817E0326292F0508142A14220408A2
:1008000008081803080808077E81BD95A9817E05A0
:1008100001010101010302050203242E240319151D
:10082000120315150A02020104F820407805060992
:100830007F017F021818040080A0C003121F10035C
:100840002629260522142A140808402F1008041E01
:10085000117C08402F10080462554C0915553F10B3
:1008600008041E117C053048484D400578151614C3
:1008700078057814161578057A1514157A05781602
:100880001516790578151415780578141514780758
:100890007E09097F494941059EA1612121057C54BA
:1008A000554644057C54564544057E5554454605F9
:1008B0007C5554454403457E4403447E4503467DB0
:1008C0004603457C4505087F49413E057C0A1122C7
:1008D0007D053844454638053844464538053A458F
:1008E00044453A05384645463905384544453805B6
:1008F0002214081422057C625A463E053C404142BF
:100900003C053C4042413C053C4241423C053C41A7
:1009100040413C0502047A0502043F12120C057E98
:1009200049494E30043845467C043844467D0438F5
:1009300046457E043A45467D043845447D04304AA8
:100940004D7A0720545438545458049CA26222040F
:10095000385556580438545659043856555A0438A0
:1009600055545902017A027A01030279020302788E
:100970000204304B4B3C047A090A710430494A3076
:100980000430484A3104304A49320432494A310479
:10099000394444390508082A08080438544C3804F6
:1009A000384142780438404279043842417A043A66
:1009B00040407A0418A0A27904FC282810041AA048
:1009C000A07A0A000A4564697420436F756E7465E5
:1009D0007220746F2000207C206F6E20616464722E
:1009E000657373203A20000A496E707574206E6535
:1009F0007720746172676574207769746820766106
:100A00006C7565203A2000207C206F6E2061646444
:100A100072657373203A20000A496E707574206EF7
:100A200065772073686966742074696D65207769DD
:100A300074682076616C7565203A200027000A42B0
:100A4000616420706172616D657465722027000AAF
:100A50000000942FA63411241FBECFEFD8E0DEBFD4
:100A6000CDBF11E0A0E0B1E0EEEDFFE602C00590E1
:100A70000D92A23BB107D9F723E0A2EBB1E001C090
:100A80001D92A73AB207E1F715E0CAE2D5E004C02B
:100A90002197FE010E948C36C932D107C9F70E9406
:100AA00010300C94E2370C94000008950895461716
:100AB000A8F09091A103491788F49091A203891797
:100AC00068F4E0919F03F091A00394E4899FE00D06
:100AD000F11D112463A344A381E0089580E00895EB
:100AE000829590E09C013595279535952795237340
:100AF000880F991F880F991F8C7C282B30E0C90123
:100B0000959587958575220F331F2A7A822B089534
:100B1000CF93DF93262F2695382F70E0680F791F2B
:100B2000FC018E2F831B821750F481916150710953
:100B3000DB019C91EF01219798838C93F2CFDF9199
:100B4000CF910895482FFC018E2F841B8617E0F467
:100B5000219130E0C901959587958575220F331F46
:100B60002A7A822B90E09C0135952795359527951B
:100B70002373880F991F880F991F8C7C822B829575
:100B8000DF0111978C93E0CF0895AF92BF92CF927F
:100B9000DF92EF92FF920F931F93CF93DF936C013D
:100BA0007B018B01040F151FEB015E01AE18BF081E
:100BB000C017D10759F06991D601ED91FC910190D0
:100BC000F081E02DC6010995892B79F7C501DF91E8
:100BD000CF911F910F91FF90EF90DF90CF90BF903A
:100BE000AF900895FC01538D448D252F30E0842F64
:100BF00090E0821B930B541710F0CF960895019745
:100C00000895FC01918D828D981761F0A28DAE0F31
:100C1000BF2FB11D5D968C91928D9F5F9F73928FB8
:100C200090E008958FEF9FEF0895FC01918D828DE4
:100C3000981731F0828DE80FF11D858D90E00895B1
:100C40008FEF9FEF0895FC01918D228D892F90E009
:100C5000805C9F4F821B91098F73992708958AEBBF
:100C600092E00E94230621E0892B09F420E0822FE4
:100C7000089580E090E0892B29F00E942F068111D1
:100C80000C9400000895FC01A48DA80FB92FB11D8C
:100C9000A35ABF4F2C91848D90E001968F739927B2
:100CA000848FA689B7892C93A089B1898C91837090
:100CB00080648C93938D848D981306C00288F38989
:100CC000E02D80818F7D80830895EF92FF920F93B6
:100CD0001F93CF93DF93EC0181E0888F9B8D8C8DE8
:100CE00098131AC0E889F989808185FF15C09FB7DC
:100CF000F894EE89FF896083E889F989808183709F
:100D0000806480839FBF81E090E0DF91CF911F914D
:100D10000F91FF90EF900895F62E0B8D10E00F5F6E
:100D20001F4F0F731127E02E8C8D8E110CC00FB644
:100D300007FCFACFE889F989808185FFF5CFCE01DC
:100D40000E944306F1CFEB8DEC0FFD2FF11DE35A0E
:100D5000FF4FF0829FB7F8940B8FEA89FB8980815F
:100D60008062CFCF0F931F93CF93DF938C01D0E09E
:100D7000C0E0F801EC0FFD1F6491662341F08AEB9F
:100D800092E00E946506892B11F02196F2CFCE01E8
:100D9000DF91CF911F910F910895CF93DF93EC01D5
:100DA000888D8823B9F0AA89BB89E889F9898C9153
:100DB00085FD03C0808186FD0DC00FB607FCF7CF0F
:100DC0008C9185FFF2CF808185FFEDCFCE010E940F
:100DD0004306E9CFDF91CF910895833081F028F465
:100DE000813099F08230A9F008958730A9F08830D9
:100DF000C9F08430B1F4809180008F7D03C0809170
:100E000080008F7780938000089584B58F7784BDAC
:100E1000089584B58F7DFBCF8091B0008F7780934C
:100E2000B00008958091B0008F7DF9CF1F93CF93CC
:100E3000DF93282F30E0F901E55FFB4F8491F90142
:100E4000E059FB4FD491F901EC57FB4FC491CC23EF
:100E5000A9F0162F81110E94ED06EC2FF0E0EE0FA5
:100E6000FF1FEF5FFB4FA591B4918FB7F894EC9102
:100E7000111108C0D095DE23DC938FBFDF91CF9195
:100E80001F910895DE2BF8CFCF93DF9390E0FC0104
:100E9000E059FB4F24918C579B4FFC018491882390
:100EA000D1F090E0880F991FFC01EA59FB4FA59102
:100EB000B491FC01EF5FFB4FC591D491623071F4A6
:100EC0009FB7F8943C91822F809583238C93E8817F
:100ED0002E2B28839FBFDF91CF9108958FB7F89471
:100EE000EC912E2B2C938FBFF6CF3FB7F8948091C7
:100EF0001A0290911B02A0911C02B0911D0226B50E
:100F0000A89B05C02F3F19F00196A11DB11D3FBF41
:100F1000BA2FA92F982F8827BC01CD01620F711D10
:100F2000811D911D42E0660F771F881F991F4A950A
:100F3000D1F708958F929F92AF92BF92CF92DF9296
:100F4000EF92FF924B015C010E9475076B017C01DF
:100F50000E9475076C197D098E099F09683E7340D0
:100F600081059105A8F321E0821A9108A108B10832
:100F700088EEC80E83E0D81EE11CF11C8114910498
:100F8000A104B10429F7FF90EF90DF90CF90BF90BC
:100F9000AF909F908F9008952091F201260F3327F4
:100FA000331F21323105ECF420919202FC0190E0D4
:100FB00080E0243069F082E00895A091F20121914F
:100FC000AC014E525E4FA40FB52FB11D2C9301966C
:100FD000861798F38091F201680F6093F20180E028
:100FE000089581E008951092920281E08093910229
:100FF00010926C0261E082E10E94160761E083E1D9
:101000000E941607E9EBF0E080818E7F808380816B
:101010008D7F808388E48093B80085E48093BC0052
:101020000895CF93DF9391E09093D1018823B9F095
:10103000C091B800D091BA008091BC008A7B8093A7
:10104000BC0060E082E10E94160760E083E10E943C
:1010500016070E94F307D093BA00C093B800DF913F
:10106000CF9108958F929F92AF92BF92CF92DF92CD
:10107000EF92FF920F931F93CF93DF93D0915B0377
:10108000D13208F0D7C0182FC091B9020E9475075D
:101090006B017C018091920281116BC082E0809390
:1010A0009202109391028FEF8093900210928F0220
:1010B000D0938E02A9E9B2E0EEE6F2E080E0D81328
:1010C00091C010926D0280916D02CC0FC82BC0931D
:1010D0006D0280916C02813009F088C010926C0220
:1010E0000E9475076B017C0180916D028093BB00AB
:1010F0008091940290919502A0919602B0919702EE
:10110000892B8A2B8B2BA1F00E94750700919402EA
:101110001091950220919602309197026C197D09E9
:101120008E099F09061717072807390708F442C0D8
:101130008091BC0083FDD8CF85EC8093BC000E94D9
:1011400075076B017C0180919202823009F450C0D6
:10115000809190028F3F09F46FC08091900280329D
:1011600009F46CC080919002803309F469C084E076
:1011700026C08091940290919502A0919602B09120
:101180009702892B8A2B8B2B09F484CF0E94750739
:101190008090940290909502A0909602B090970251
:1011A0006C197D098E099F0986169706A806B9064F
:1011B00008F070CF809193020E94110885E0109290
:1011C0005C0310925B0310929802DF91CF911F9104
:1011D0000F91FF90EF90DF90CF90BF90AF909F90D6
:1011E0008F9008959D9191938F5F69CF85EEA5CFE4
:1011F0008091940290919502A0919602B0919702ED
:10120000892B8A2B8B2B09F49ECF0E9475070091A6
:1012100094021091950220919602309197026C19D8
:101220007D098E099F09061717072807390708F057
:101230008ACFC0CF81E0C3CF80E0C1CF82E0BFCFF3
:1012400083E0BDCF0895E0915E0380915D03E817D0
:1012500030F4F0E0EC5BFD4F808190E008958FEF7B
:101260009FEF089590915E0380915D032FEF3FEF14
:10127000981748F4E92FF0E0EC5BFD4F208130E057
:101280009F5F90935E03C901089580915D039091E3
:101290005E03891B990B0895CF92DF92EF92FF9224
:1012A0000F931F93CF93DF937C01CB018A01209191
:1012B0009802222389F0EB016B01C40ED51ECC15D8
:1012C000DD0569F06991D701ED91FC910190F08104
:1012D000E02DC7010995F3CF642F0E94CC07C80108
:1012E000DF91CF911F910F91FF90EF90DF90CF9002
:1012F0000895CF93DF931F92CDB7DEB76983209116
:1013000098022223F9F020915B03203258F021E06B
:1013100030E0FC013383228390E080E00F90DF9186
:10132000CF91089580915C03E82FF0E0E756FD4FE0
:10133000998190838F5F80935C0380935B0381E04E
:1013400090E0ECCF61E0CE0101960E94CC07F7CF90
:10135000CF92DF92EF92FF921F93CF93DF93DC0146
:1013600058961C92589788E059968C9359975A969C
:101370001C925A975C961C921E925B978FEF90E09E
:101380005E969C938E935D9790961C921E925F97AB
:1013900056968D919C915797009709F478C0FC015F
:1013A0002491263409F031C03196E491E13009F4FA
:1013B00053C022E030E0E23021F5FC013296249166
:1013C0003196E49130E0322F22272E0F311D5C96AA
:1013D0003C932E935B97FC01349624913196E491D3
:1013E00030E0322F22272E0F311D5E963C932E9334
:1013F0005D97FC013696E4915996EC93599727E056
:1014000030E090963C932E935F975F96CD90DC9062
:101410009097F12CE12C5B962D913C915C975D9619
:10142000CD91DC915E9710E0C217D30770F1FC01FB
:10143000EC0DFD1D4491141708F4142F50E070E0DA
:1014400060E04F5F5F4F6F4F7F4FC40ED51EE61EAB
:10145000F71E2F5F3F4FE8CFFC013296E491F0E09A
:101460005C96FC93EE935B97FC013396E491F0E07D
:101470005E96FC93EE935D97FC013496E491599649
:10148000EC93599725E030E0BCCF5A961C93DF913E
:10149000CF911F91FF90EF90DF90CF900895FC01C6
:1014A0008385681738F52485358579E0679F200D99
:1014B000311D1124848150E09381992371F0882398
:1014C00031F087E090E0FC01E41BF50BAF01240F45
:1014D000351FF90180810C947005882331F087E075
:1014E00090E0BC01641B750BAB01240F351FF901A3
:1014F0008081089580E008958F929F92AF92BF926D
:10150000CF92DF92EF92FF92CF93DF93FC01242FD3
:1015100030E08381882309F447C087E090E0821B94
:10152000930B91E001C0990F8A95EAF783856817BC
:1015300008F040C024853585A90189E0689F400DE9
:10154000511D1124BA01E48130E020E080E0A7E0E1
:10155000B0E0C12CD12C7601C394F22FAD01421B17
:10156000530BE11101C0A901460F571FEA01488141
:10157000492351F04601570104C0880C991CAA1C4C
:10158000BB1CFA95D2F788292F5F3F4F28303105D1
:1015900021F7DF91CF91FF90EF90DF90CF90BF9038
:1015A000AF909F908F90089591E001C0990F4A9558
:1015B000EAF7BCCF80E0EDCFFC01228121110C9431
:1015C0007C0A0C944F0A462F47706695669566957F
:1015D0000C94DC0AFC01848D90A1A6A5B7A591FD11
:1015E00015C0882381F0808D918D0597A9F481E045
:1015F00024A535A52A173B0709F080E080AB119799
:10160000B7A7A6A70895828D938DEFCF882379F091
:10161000808D918D059759F7CD01019697A786A7E3
:1016200081E011969C91911180E080AB0895828DAC
:10163000938DF0CFFC01868997898230910591F4D2
:101640002389348936A325A331A720A782309105A9
:1016500061F42189328933A722A7029749F08FEFDD
:1016600087A3089521893289EDCF23893489F3CF67
:1016700081E0F6CF85EB92E00E94B2068AE792E025
:101680000E94B2068FE392E00E94B20683E092E0ED
:101690000E94B20683ED91E00E94B20684E891E0D8
:1016A0000E94B20682E591E00E94B20688E291E0D3
:1016B0000E94B20689EF90E00E94B20689EC90E0A9
:1016C0000E94B20683E990E00E94B20688E690E0AC
:1016D0000C94B206CF93DF9300D0CDB7DEB7698309
:1016E0001A82DC01ED91FC910084F185E02DBE01B0
:1016F0006F5F7F4F099581E090E00F900F90DF9131
:10170000CF910895DC0198962C919897621750F428
:101710009596ED91FC91B4E46B9FE00DF11D1124C1
:10172000168615860895AF92BF92CF92DF92EF9200
:10173000FF920F931F93FC0180A5681758F4A5A191
:10174000B6A184E4689FA00DB11D11249D965C9301
:101750004E939C9780A5681758F4A5A1B6A184E480
:10176000689FA00DB11D112457963C932E93569758
:1017700080A5681798F4A5A1B6A184E4689FA00D80
:10178000B11D112418961C930E9317971A961C934B
:101790000E9319971C96FC92EE921B9780A56817E2
:1017A000A8F4A5A1B6A184E4689FA00DB11D1124E1
:1017B000C114D10419F4CC24C394D12C5996DC92D1
:1017C000CE9258975B96BC92AE925A97CF011F91DA
:1017D0000F91FF90EF90DF90CF90BF90AF900C945F
:1017E000820B089590E080E00895CF92DF92EF920F
:1017F000FF920F931F93CF93DF93C62F91E09093A7
:10180000980298E69093B90210925C0310925B03E1
:10181000682F8FE593E00E94790981E00E943208E9
:10182000D82F8111D3C00E9475076B017C01809174
:101830009202811165C081E08093920280939102AF
:101840009FEF9093900210928F029C0F90938E02C4
:1018500080936D0280916D02806D80936D02809106
:101860006C02813009F08CC010926C020E947507E6
:101870006B017C0180916D028093BB00809194028A
:1018800090919502A0919602B0919702892B8A2B94
:101890008B2BA1F00E947507009194021091950284
:1018A00020919602309197026C197D098E099F094B
:1018B000061717072807390708F443C08091BC00B2
:1018C00083FDD8CF85EC8093BC000E9475076B0127
:1018D0007C0180919202813009F454C080918F0282
:1018E0008C1708F071C080918F02EEE6F2E0A4E45C
:1018F000B2E090E0981751F121912D939F5FFACFBC
:101900008091940290919502A0919602B0919702D5
:10191000892B8A2B8B2B09F48ACF0E9475070091A3
:1019200094021091950220919602309197026C19C1
:101930007D098E099F09061717072807390708F040
:1019400076CF809193020E94110880E010925E038E
:1019500080935D0304E612E08FE593E00E94320974
:10196000F80181938F01DF5FCD13F6CF8C2FDF91CC
:10197000CF911F910F91FF90EF90DF90CF9008953E
:1019800085EEA1CF8091940290919502A09196024C
:10199000B0919702892B8A2B8B2B09F49ACF0E9446
:1019A0007507009194021091950220919602309152
:1019B00097026C197D098E099F09061717072807DA
:1019C000390708F086CFBDCF8C2F8FCFC0E0CECFA8
:1019D00067E080E00E94F50B20916402822F90E086
:1019E000F4E095958795FA95E1F7982F990F990F5F
:1019F000891B880F820F8093710320916502822FCB
:101A000090E0A4E095958795AA95E1F7982F990F16
:101A1000990F891B880F820F809370038091660253
:101A200086FF64C0982F9F71292F30E0E4E0359540
:101A30002795EA95E1F7322F330F330F231B220F3F
:101A4000290F20936F0380728093730320916702A4
:101A5000822F90E034E0959587953A95E1F7982F9D
:101A6000990F990F891B880F820F80937203209121
:101A70006802822F90E044E0959587954A95E1F7BA
:101A8000982F990F990F891B880F820F80936E03EF
:101A900040916902842F90E054E0959587955A957E
:101AA000E1F7982F990F990F891B880F840F809366
:101AB0006D0390916A02292F30E064E035952795F7
:101AC0006A95E1F7822F880F880F522F581B852FB8
:101AD000880F890F90E09C012053384F47FD1AC0B2
:101AE00030936C0320936B0381E00895282F2F73AC
:101AF000822F90E074E0959587957A95E1F7982F7D
:101B0000990F990F891B880F820F80936F03109292
:101B100073039CCF8C5C974F90936C0380936B0303
:101B2000E3CFCF92DF92EF92FF920F931F93CF9369
:101B3000DF93EC0188858823A1F08091D001882370
:101B400061F08FB7F8949091D001913041F59DB339
:101B50009093CF019DB39DBB8FBF80E58CBD81E08D
:101B60008DBD60E08F810E94160788858823D1F0A3
:101B700030E020E08B8590E0880F991F2817390707
:101B8000C8F5EE85FF85E20FF31F80818EBD000052
:101B90000DB407FEFDCF8EB52F5F3F4FEBCF809387
:101BA000CF01DBCF10E000E08B8590E0880F991F1C
:101BB00008171907F8F4EE85FF85E00FF11FE080A4
:101BC000DE80CD8088E0F82E6E2D661F6627661FAA
:101BD0008C2D0E941607EE0C61E08D2D0E941607D9
:101BE00060E08D2D0E941607FA94F110EDCF0F5F83
:101BF0001F4FDACF61E08F810E9416078885882306
:101C000071F08091D001882351F09FB7F894209112
:101C1000D0018091CF01213059F48DBB9FBFDF915E
:101C2000CF911F910F91FF90EF90DF90CF9008958B
:101C30008FBFF5CF8F929F92AF92BF920F931F935A
:101C4000CF93DF93CDB7DEB7A1970FB6F894DEBF81
:101C50000FBECDBF19A2423008F44AE08E010F5DDD
:101C60001F4F842E912CB12CA12CA50194010E9410
:101C70004F36E62FB901CA01EA3044F5E05DD801DC
:101C8000EE938D01232B242B252B79F790E080E018
:101C9000109769F0FD0101900020E9F73197AF013D
:101CA0004A1B5B0BBD018AEB92E00E94C505A19621
:101CB0000FB6F894DEBF0FBECDBFDF91CF911F915D
:101CC0000F91BF90AF909F908F900895E95CD7CF10
:101CD000CF92DF92EF92FF92CF93DF936C01990F37
:101CE000EE08FF08F7FE19C06DE28AEB92E00E9451
:101CF0006506EC0166277727CB016C197D098E09F3
:101D00009F094AE00E941A0E8C0F9D1FDF91CF9110
:101D1000FF90EF90DF90CF9008954AE0C701B601A1
:101D2000DF91CF91FF90EF90DF90CF900C941A0E3F
:101D3000682F70E090E080E04AE00C941A0E009763
:101D400069F0FC0101900020E9F73197AF01481BD1
:101D5000590BBC018AEB92E00C94C50590E080E041
:101D6000089560E08A3020F490E39093410261E0AE
:101D700070E06F5B7D4F4AE090E00E94CA3581E4DD
:101D800092E008950E94E80C88EF93E00E94B2066A
:101D900087EF93E00E94B20660916B0370916C0331
:101DA00090E080E04AE00E941A0E85EF93E00E94E6
:101DB000B20680916D030E94B10E0E949F0E83EFC8
:101DC00093E00E94B20680916E030E94B10E0E94C1
:101DD0009F0E81EF93E00E94B20680916F030E94F4
:101DE000B10E0E949F0E8FEE93E00E94B20680918A
:101DF00070030E94B10E0E949F0E8DEE93E00E9430
:101E0000B206809171030E94B10E0E949F0E61E0A4
:101E100082E00E94F50B8091640286FF0CC08CEE7C
:101E200093E00E94B20680917303811116C080E88E
:101E300091E00E949F0E8BEE93E00E94B206E0912B
:101E40007203E83008F0E0E0F0E0EE0FFF1FE85D1D
:101E5000FE4F808191810C949F0E8CE791E0E9CF39
:101E60001092400210923F024AE065E372E090E077
:101E700080E00E94CA358091A203833050F0E09147
:101E80009F03F091A003EC54FF4F85E392E0918310
:101E9000808362E08AE793E00E94820B89EB92E004
:101EA0000E94B20687EB92E00C94B2060E94E80C06
:101EB00080916F039091B701891708F44FC089137F
:101EC0001CC0209170039091B601291738F482E06C
:101ED00090E09093BF018093BE01089529130DC037
:101EE0008091BE019091BF01892B11F00E94300FAB
:101EF0001092BF011092BE0108959091B50189170B
:101F0000B8F3891313C0209170039091B40129177D
:101F100078F329130BC08091BE019091BF01019706
:101F200011F00E94300F81E090E0D3CF9091B30187
:101F30008917C8F38913CBCF909170038091B201B8
:101F4000981788F39813C3CF8091BE019091BF0179
:101F5000029709F4BCCF0E94300FB9CF0895FC015D
:101F6000438550E0440F551F70E060E086859785FB
:101F70000C94D137BF92CF92DF92EF92FF920F93E2
:101F80001F93CF93DF93FC012385621708F04EC0A7
:101F9000EC01F9E06F9F70011124D12CC12C062FA8
:101FA00010E0BB24B394BC0CEC85FD85EE0DFF1D49
:101FB000808590E00C2C02C0959587950A94E2F7F5
:101FC00080FF27C0CE010E94AF0F8B858150990BF7
:101FD000801B910B880F991F2E853F85820F931FC1
:101FE000FC01B082EC85FD85EE0DFF1DEC0DFD1DA5
:101FF00040818B858150990B801B910B880F991F15
:102000002E853F85820F931FFC014183CE010E94E4
:10201000910DFFEFCF1ADF0A88E0C816D10409F648
:102020008C859D85E80EF91EF7011086DF91CF9112
:102030001F910F91FF90EF90DF90CF90BF90089588
:102040000F931F93CF93DF93EC01162F042F822F52
:102050009B8191110E94700599E0199F90011124B4
:10206000AC85BD85A20FB31F602F70E09C8147E057
:1020700050E0461B570B911101C0AB01A40FB51FD7
:102080008C93EC85FD85E20FF31F20858C818823DE
:10209000F1F047E050E0461B570B81E090E0A0E0F4
:1020A000B0E004C0880F991FAA1FBB1F4A95D2F742
:1020B000822B80878C89882321F0612FCE010E949A
:1020C000BA0F81E0DF91CF911F910F91089581E0C8
:1020D00090E0A0E0B0E004C0880F991FAA1FBB1FCA
:1020E0000A95D2F7E5CF9F92AF92BF92CF92DF923F
:1020F000EF92FF920F931F93CF93DF93FC0189E040
:10210000689FE001112481E090E0A0E0B0E06C0164
:102110007D01042E04C0CC0CDD1CEE1CFF1C0A94B7
:10212000D2F7BC2C7C2D709507E010E0041B110940
:1021300004C0880F991FAA1FBB1F0A95D2F7A82EAB
:10214000382F309590E080E0022F10E027E0E22E5B
:10215000F12CAC01A485B585AC0FBD1F2481938003
:102160006801082E02C0D594C7940A94E2F7C0FE15
:102170002AC0222319F0A701481B590BA40FB51F31
:102180002C914B2D91104A2D242B2C9301968830A5
:102190009105F9F684859585C80FD91F8FEF88873B
:1021A0008489882319F0CF010E94BA0F81E0DF9162
:1021B000CF911F910F91FF90EF90DF90CF90BF9044
:1021C000AF909F900895222319F0A701481B590B47
:1021D000A40FB51F2C91472F9110432F2423D5CF47
:1021E000FC0152813385552321F0631730F40C94A0
:1021F0007310631710F40C94201080E00895242FBE
:10220000462F477033E0769567953A95E1F70C9441
:10221000F010FC0152813385552331F0631750F4DF
:10222000483041F00C942010631720F4483011F02E
:102230000C94731080E00895CF92DF92EF92FF929A
:102240000F931F93CF93DF93FC01722F82815385ED
:10225000882309F45DC0651708F0BEC0283009F472
:10226000BBC009E0609F70011124848595858E0DA7
:102270009F1D50E0A22FB0E024812223B9F127E076
:1022800030E0E901C41BD50BAE012A1B3B0B480F04
:10229000591FEA014881820F931FEC01488384850E
:1022A0009585E701C80FD91F28858481882301F10E
:1022B00047E050E04A1B5B0B81E090E0A0E0B0E01B
:1022C00004C0880F991FAA1FBB1F4A95D2F7822B03
:1022D00088878489811118C081E0DF91CF911F9197
:1022E0000F91FF90EF90DF90CF9008959D01CFCF99
:1022F00081E090E0A0E0B0E004C0880F991FAA1F21
:10230000BB1F7A95D2F7E3CFCF010E94BA0FE4CF7B
:10231000A42FB0E09381992309F44FC027E030E067
:102320002A1B3B0B91E001C0990F2A95EAF765172C
:10233000A0F6783091F2D9E06D9FA001112401E060
:1023400010E020E030E068017901072E04C0CC0CD9
:10235000DD1CEE1CFF1C0A94D2F7DC2DCC2DC095A1
:10236000A7E0B0E0A71BB10904C0000F111F221F96
:10237000331FAA95D2F7F02E009530E020E0A48517
:10238000B585A40FB51FA20FB31F8C917381182FB1
:102390001923D9F0711117C07D2F872B8C932F5FD4
:1023A0003F4F2830310559F784859585480F591FCF
:1023B0008FEFDA0118968C938CCF91E001C0990FC2
:1023C0004A95EAF7B4CF7F2DE8CF711103C07C2F77
:1023D0008723E4CF702FFCCF80E07FCF8F929F9236
:1023E000AF92BF92CF92DF92EF92FF920F931F9323
:1023F000CF93DF93CDB7DEB728970FB6F894DEBF43
:102400000FBECDBF8C01D62E29E0629F7001112432
:10241000FA013197E730F10558F4EF5EFD4E0C9468
:102420008C3664129612CC12031344138413A41333
:10243000DC0112968C918823C1F130E020E0D801B4
:102440001C96ED91FC911D97EE0DFF1DE20FF31F01
:10245000808113969C91992331F190E09595879511
:1024600080832F5F3F4F2830310549F7F80184857D
:102470009585E80EF91E8FEFD70118968C9381E0B1
:1024800028960FB6F894DEBF0FBECDBFDF91CF9177
:102490001F910F91FF90EF90DF90CF90BF90AF9082
:1024A0009F908F900895880FDBCF87E090E0D80150
:1024B0001C96ED91FC91EE0DFF1DE80FF91F208198
:1024C00021830197A0F7D2CFFC0182818823E1F01C
:1024D00030E020E0D8011C96ED91FC911D97EE0DA7
:1024E000FF1DE20FF31F808113969C91992341F009
:1024F000880F80832F5F3F4F2830310559F7B6CFC3
:1025000090E095958795F5CF81E090E0D8011C96F5
:10251000ED91FC91EE0DFF1DE80FF91F2081319721
:10252000208301968830910589F7A0CFFC01C280F5
:1025300085898823F9F040E0C801CC20C1F00E94D1
:102540004F0A8983CC20C1F020E0CC24C394C20E72
:102550004C2D6D2DC8010E941C112C2D2730A9F780
:10256000298147E06D2DC8010E9409117FCF0E948B
:102570007C0AE7CF1982E6CF87E090E0D8011C966D
:10258000ED91FC91EE0DFF1DE80FF91F2081220F48
:102590002083019798F7E4CFFC01C28085898823C6
:1025A000D9F047E0C801CC20A1F00E944F0A8983EE
:1025B000CC20A1F028E0CC24CA94C20E4C2D6D2D65
:1025C000C8010E941C112C2DC110F5CF298140E0BB
:1025D000C9CF0E947C0AEBCF1982EACF30E020E01D
:1025E000D8011C96ED91FC91EE0DFF1DE20FF31F3B
:1025F000808190E09595879580832F5F3F4F2830AD
:10260000310571F7E3CFFC0182818823C1F0B12C41
:10261000A12CD8011C96CD90DC90CE0CDF1CCA0CEE
:10262000DB1CF60180810E947005D6018C93BFEF00
:10263000AB1ABB0AE8E0AE16B10459F717CF30E089
:1026400020E047E050E0D8011C968D919C918E0DC2
:102650009F1DFC01E20FF31FD080BA01621B730BB8
:10266000860F971FDC018C918083D8011C96ED9119
:10267000FC91EE0DFF1DE60FF71FD0822F5F3F4F3D
:102680002430310501F7F2CEFC018281882329F143
:1026900030E020E047E050E0D8011C968D919C91FD
:1026A0008E0D9F1DFC01E20FF31FD080BA01621B4B
:1026B000730B860F971FDC018C918083D8011C96C9
:1026C000ED91FC91EE0DFF1DE60FF71FD0822F5FFD
:1026D0003F4F2430310501F7C9CEB12CA12CF801B0
:1026E000C484D584CE0CDF1CCA0CDB1CD6018C91B3
:1026F0000E947005F6018083FFEFAF1ABF0A28E041
:10270000A216B10461F7B2CECE0101965C014C0174
:1027100087E0C82E4C2D6D2DC8010E94DC0AD40123
:102720008D934D01CA94BFEFCB12F4CFC12CF501AC
:1027300021915F014C2D6D2DC8010E940911C39498
:10274000F8E0CF12F4CF92CE90E080E0D8011C9652
:10275000ED91FC91EE0DFF1DE80FF91F20812095F2
:10276000208301968830910589F780CECF92DF9241
:10277000EF92FF920F931F93CF93DF93EC01DD2431
:10278000D394F12CE12C01E010E0B9E0CB2ECE0186
:102790000E94AF0F98010E2C02C0220F331F0A9423
:1027A000E2F7E0E090E08B85E81798F5EC9DA0015A
:1027B0001124AC85BD85A40FB51F18966C9170E0EF
:1027C00062237323672B19F16E2F70E08150990BF0
:1027D000861B970B880F991FAE85BF85A80FB91F61
:1027E000DC92AC85BD85A40FB51FAE0DBF1DFC915D
:1027F0008B858150990B861B970B880F991F4E85EF
:102800005F85840F951FDC011196FC9391E0EF5FCB
:10281000CACF992319F0CE010E94910DBFEFEB1A98
:10282000FB0AD39488E0E816F10409F0B0CF80E009
:1028300099E02B85821748F4EC85FD85899FE00D92
:10284000F11D112410868F5FF4CFDF91CF911F917E
:102850000F91FF90EF90DF90CF900895CF93DF938B
:10286000C9E078E05FEF4617B0F06C9F900111244B
:10287000FC01A485B585A20FB31FFD01D72F1192CE
:10288000DA95E9F7DC011C96ED91FC91E20FF31F5C
:1028900050876F5FE8CFFC012489222321F0DF916C
:1028A000CF910C94B613DF91CF9108956F927F92E0
:1028B0008F929F92AF92BF92CF92DF92EF92FF9250
:1028C0000F931F93CF93DF93CDB7DEB729970FB642
:1028D000F894DEBF0FBECDBF8C01E62EF42E590159
:1028E000D12C461708F4D5C0DC015496DC905497DF
:1028F00054961C9224303105B0F522303105C8F5CC
:102900002130310509F4DBC0D80155968C9188231C
:1029100009F486C06F2D660F660F660F695FC801E8
:102920000E94E30AC82EAE2CB12C8F2D0F2C000C68
:10293000990B8A159B050CF489C050E040E06F2D7F
:10294000C8010E94EE1199249A949F0C47E0692DCA
:10295000C8010E94DC0A282F40E06F2DC8010E94A8
:10296000F010F92CE2CF2430310561F02830310528
:1029700058F6A5016E2DC8010E94EE11E394FE14D5
:10298000C0F77EC0642F70E0AE2CB12C4B018A18CA
:102990009B08BFEF8B1A9B0A97FE03C0EFEF8E1ABE
:1029A0009E0A95948794712C29E0C22E472D50E001
:1029B000481559050CF0CFC0F80124853585FA017A
:1029C000EA0DFB1DCE9EC001CF9E900D1124820FFB
:1029D000931FFC01DE0111966C2C01900D926A94FC
:1029E000E1F7FB01E41BF50BCE9EA001CF9E500D3D
:1029F0001124F901E40FF51FDC018C2D01900D92DB
:102A00008A95E1F7F801A485B585A40FB51FFE01ED
:102A100031968C2D01900D928A95E1F77394C6CF73
:102A2000F801A288B388A114B10471F06F2D660F6C
:102A3000660F660F695FC8010E94E30A482F70E0C5
:102A400060E08F2DF5010995C12C6DCFD80150960E
:102A5000ED91FC915197309749F055968C918111E9
:102A600005C070E060E08E2D0995C82EB50183E0A9
:102A7000660F771F8A95E1F74C2DC8010E94FF1061
:102A8000D8015496DC92DD2009F46FC0C8010E9481
:102A9000B6138D2D29960FB6F894DEBF0FBECDBFAD
:102AA000DF91CF911F910F91FF90EF90DF90CF902A
:102AB000BF90AF909F908F907F906F900895FC0192
:102AC00085898823A9F1660F660F660FC8010E94E9
:102AD000E30AC82E41E050E06E2DC8010E94EE11BD
:102AE000BB24B394BE0C40E06B2DC8010E94DC0AED
:102AF000282F47E06E2DC8010E94F010EB2CFB142C
:102B000048F7D8015096ED91FC915197309749F0D4
:102B100055968C91811105C061E070E08F2D09956B
:102B2000C82EB8E0FB9EB0011124695F7F4FA4CF8F
:102B3000A288B388A114B10461F0660F660F660F16
:102B4000C8010E94E30A482F61E070E08E2DF50174
:102B50000995C12CBFCF44E050E06E2DC8010E9402
:102B6000EE11E394FE14B8F78BCFDD24D39491CF0C
:102B7000CF93DF93EC014CA16BA1461720F0888125
:102B800099810E942E148D8D882351F027E030E02A
:102B90004CA16BA188819981DF91CF910C9456143F
:102BA000DF91CF910895CF92DF92EF92FF920F9332
:102BB0001F93CF93DF93EC01D62EC42E790180E0D2
:102BC0004617E0F02A30310508F069C0CE010E94B6
:102BD000AF0F92E0E916F10409F453C0C0F4E11418
:102BE000F10429F1F1E0EF16F10409F443C0D394A4
:102BF000CD1478F7CE010E94910D81E0DF91CF9145
:102C00001F910F91FF90EF90DF90CF90089583E098
:102C1000E816F104E9F194E0E916F10441F781E0E6
:102C20000115110509F480E0819599E006C081E065
:102C30000115110509F080E09CE04D2D50E02B8539
:102C40002150330B241B350B220F331F6E857F85DC
:102C5000260F371FF90190832B852150330B241B3E
:102C6000350B220F331F4E855F85240F351FF90169
:102C70008183BDCF802F083011050CF087E09BE0E9
:102C8000DCCF802F003111050CF08FE09AE0D5CF1A
:102C900081E00115110509F480E09FE0CECF81E0CD
:102CA0000130110509F080E0FBE0EF16F10449F076
:102CB0008C8B0130110509F0A0CFCE010E94B61314
:102CC0009CCF8D8B9ACF0F931F93FC0161A3062F8E
:102CD00010E022E030E044A163A1808191810E9454
:102CE000D3151F910F9108950F931F939B018A0194
:102CF000FC014385415060E00E94D3151F910F9164
:102D0000089585ED8093BC00809194029091950286
:102D1000A0919602B09197020796A11DB11D23E0E4
:102D2000B695A795979587952A95D1F72091BC00E0
:102D300024FD03C010929202089540919402509194
:102D400095026091960270919702452B462B472B76
:102D500069F30097A105B10541F025E32A95F1F744
:102D600000000197A109B109E1CF809193020C9471
:102D700011081F93CF93DF93EC01A881B9815A9674
:102D80001C918EA9180F8BA9811768F48CA99DA995
:102D9000009711F00E942E371BAB812F90E00E940C
:102DA00092369DAB8CABDF91CF911F910895CF925E
:102DB000DF92EF92FF920F931F93CF93DF937C01EB
:102DC0006B01EA01CA0101960E9492368C010097BC
:102DD000F1F0AE01B6010E94C837F801EC0FFD1FFB
:102DE0001082D701ED91FC910084F185E02DB801AE
:102DF000C7010995C8010E942E37CE01DF91CF91FE
:102E00001F910F91FF90EF90DF90CF900895D0E049
:102E1000C0E0F3CFCF92DF92EF92FF920F931F9318
:102E2000CF936C017B01C42F8901DC01D196ED9118
:102E3000FC91309709F1808191818E159F05C1F435
:102E40000280F381E02D80818C1708F4C82F4C2F6D
:102E500050E0BF016F5F7F4FC8010E94C8378C2FC1
:102E6000CF911F910F91FF90EF90DF90CF90089539
:102E70000480F581E02DDDCFF6018081918122ADC6
:102E800033ADDC0156964D915C912417350751F016
:102E90002115310511F428E934E0FC01378B268B2C
:102EA0000E94A8090115110509F448C0D6012D9109
:102EB0003C91F901878D90A1B0E0A0E0438D548D45
:102EC000E416F506A0F1658D768D6E157F0578F117
:102ED00066897789FB01E80FF91FE416F50659F0BA
:102EE000E4918E0F911DA11DB11D0196A11DB11D73
:102EF0004F5F5F4FEFCF4491C41710F50196A11DAE
:102F0000B11DA801801B910B642F601B6C1708F08A
:102F1000A6CFBC01640F751FD9015696ED91FC91A7
:102F2000E60FF71FE491DA01ED93AD01EDCF4C2FE1
:102F300050E070E060E0C8010E94D137C0E08FCF60
:102F4000C491DCCF1F93CF93DF93EC01142F2CA9F6
:102F50003DA94BA90E940A17112389F0882379F013
:102F600090E02EA9921758F42BA9821730F4ECA9FF
:102F7000FDA9E80FF11D10828F5F9F5FF2CFDF91F7
:102F8000CF911F9108950F931F93CF93DF93EC017F
:102F90008B01EEA5FFA541E08181811101C040E0D8
:102FA000608170E0CE010E94A217F801808328A101
:102FB0009C8D21FD10C0992359F0288D398D253025
:102FC000310581F4682F8CA99DA90E9488050AC04B
:102FD0002A8D3B8DF4CF9923B9F0288D398D25307A
:102FE000310581F788A180FF06C0F80160818CA9B6
:102FF0009DA90E94A205CE010E94EA0A81E0DF910C
:10300000CF911F910F9108952A8D3B8DE8CF0F939B
:103010001F93CF93DF93EC01FB011082ACA5BDA5FC
:10302000BFA7AEA7109719F08C91811108C081E05D
:1030300088AB80E0DF91CF911F910F91089518AA7E
:103040008C8D98A191FD10C0882359F0888D998DA1
:10305000059781F40D900020E9F71297BFA7AEA75E
:1030600009C08A8D9B8DF4CF882331F1888D998D8D
:10307000059781F7AEA5BFA541E011968C911197F8
:10308000811101C040E08B016C9170E0CE010E9483
:10309000A217F801808328A19C8D21FD13C09923DC
:1030A00071F0288D398D2530310599F4682F8CA960
:1030B0009DA90E9488050DC08A8D9B8DD9CF2A8D30
:1030C0003B8DF1CF992399F0288D398D253031052D
:1030D00069F788A180FF06C0F80160818CA99DA9CD
:1030E0000E94A205CE010E94EA0A81E0A3CF2A8DA8
:1030F0003B8DECCFCF92DF92EF92FF920F931F9315
:10310000CF93DF93EC010E94B815C988DA887E015D
:1031100087E3E80EF11CB701CE010E94071819AE33
:1031200018AE86018B899C89081719077CF18FA935
:1031300028AD39AD8217130611F081110AC01FAAFC
:1031400088A9811104C0B701CE010E94C31719AE2E
:1031500018AE8FA9882331F38881998148AD59AD84
:103160009A012F5F3F4FECA9FDA9E40FF51F4D8D8C
:1031700039AF28AF442341F040814095B8010E9407
:10318000FF1001501109CECF4081F8CFDF91CF91D0
:103190001F910F91FF90EF90DF90CF900895FF92D5
:1031A0000F931F93CF93DF93EC01F62E8D859E85B1
:1031B000442309F462C08430910530F5019758F139
:1031C0008D859E85059721F483E090E09E878D870D
:1031D000CE010E947A180DA11EA12FA18AA59BA540
:1031E000820F911D27FD9A9580179107E1F04D8D73
:1031F0004195B801888199810E94FF108FA1080F25
:10320000111D87FD1A95E9CF0597D1F285E090E071
:103210009E878D872CC0CE010E941A0B83E090E020
:103220009E878D87CDCFFF2069F06DA17EA1061707
:10323000170741F04D8D81E048274195888199819C
:103240000E94FF108DA19EA12FA1022E000C330B16
:103250004AA55BA5420F531F8417950721F445E04B
:1032600050E05E874D87820F931F9EA38DA3DF9151
:10327000CF911F910F91FF9008958430910500F533
:10328000019700F1CE010E947A1808A519A56DA139
:103290007EA18FA1082E000C990B9B01280F391FCE
:1032A00020173107B9F04D8D4195B801888199817A
:1032B0000E94FF108FA1080F111D87FD1A95E7CFFF
:1032C000059751F5CE010E941A0B83E090E09E878E
:1032D0008D87D8CFFF2079F02AA53BA5820F931FB9
:1032E0006817790741F04D8D81E048274195888125
:1032F00099810E94FF108DA19EA12FA1022E000C8A
:10330000330B4AA55BA5420F531F8417950709F09D
:10331000AACF46E050E0A5CF86E090E079CFAF920B
:10332000BF92CF92DF92EF92FF920F931F93CF93B2
:10333000DF93EC01F62E8D859E85442309F46EC043
:103340008430910580F50197A8F1CE010E94B8154F
:10335000CE010E947A18CBA088E0C89E600111249B
:10336000EE24E394F11002C050E8E52E0DA11EA159
:103370008CA190E0019643E0880F991F4A95E1F7F0
:10338000C816D906ACF5A880B9806C2DC5010E947D
:10339000E30A101624F5FF2001F1880F9D8D91118D
:1033A0008E290150F6CF059781F285E090E09E8747
:1033B0008D8729C087E090E09EA38DA310E000E0F8
:1033C0002BE030E04CA16BA1888199810E94D3153C
:1033D00083E090E09E878D87B8CF8695DFCF482F1A
:1033E000B601C5010E94FF108FEFC81AD80ABECFE0
:1033F0000115110521F485E090E09E878D8701502D
:1034000011091EA30DA3DF91CF911F910F91FF9082
:10341000EF90DF90CF90BF90AF90089584309105EA
:1034200060F5019760F10BA188E0089F80011124ED
:1034300030E8E32EF11002C0EE24E3948CA190E07A
:10344000019623E0880F991F2A95E1F708171907BD
:10345000FCF4C880D980602FC6010E94E30A482F7F
:10346000FF20A1F046958D8D81114E29B801C6012E
:103470000E94FF100F5F1F4FE1CF0597B1F41EA20E
:103480001DA283E090E09E878D87CDCF440FEBCFC8
:103490008DA19EA18730910521F426E030E03E8782
:1034A0002D8701969EA38DA3AECF86E090E07FCFBF
:1034B000CF92DF92EF92FF921F93CF93DF93EC01B5
:1034C000D42E8D859E85662309F458C084309105DD
:1034D000A8F50197D0F1CE010E947A182DA13EA146
:1034E0002830310569F1E8A4F9A481E090E001C039
:1034F000880F2A95EAF7182FD11010952FA18AA5C9
:103500009BA5820F911D27FD9A958E159F0549F168
:10351000C880D9806E2DC6010E94E30A9D8D412F7F
:103520009923E9F04095482BB701C6010E94FF108E
:103530008FA1E80EF11C87FDFA94E0CF059759F2B0
:1035400085E090E09E878D8711C0CE010E941A0B06
:103550001EA21DA283E090E09E878D87BCCF4823EA
:10356000E3CF8DA19EA101969EA38DA3DF91CF9164
:103570001F91FF90EF90DF90CF90089584309105D8
:1035800098F5019798F1CE010E947A188DA19EA11D
:1035900010E097FD05C011E001C0110F8A95EAF710
:1035A000E8A4F9A4D11010952FA18AA59BA5820F9C
:1035B000911D27FD9A958E159F0531F1C880D98000
:1035C0006E2DC6010E94E30A9D8D412F9923D1F0F3
:1035D0004095482BB701C6010E94FF108FA1E80E4D
:1035E000F11C87FDFA94E0CF0597C1F4CE010E944B
:1035F0001A0B87E090E09EA38DA383E090E09E8766
:103600008D87C1CF4823E6CF8DA19EA197FF04C02F
:1036100026E030E03E872D870197A6CF86E090E038
:1036200091CFFF920F931F93CF93DF93EC01F42E72
:103630008D859E85662309F444C08430910538F554
:10364000019760F1CE010E947A182DA13EA18AA5B2
:103650009BA528173907E9F008A519A58FA1082E01
:10366000000C990B2DA13EA14AA55BA5480F591F3F
:103670004017510709F464C0F11018C0021713076E
:10368000C1F48FA1080F111D87FD1A95E7CF05978B
:10369000C9F285E090E09E878D8756C0CE010E94DA
:1036A0001A0B83E090E09E878D87CCCF021713071B
:1036B00041F74D8D4195B801888199810E94FF1095
:1036C000E0CF8430910500F5019700F1CE010E9412
:1036D0007A1808A519A54AA55BA58FA1082E000C8C
:1036E000990B2DA13EA1BA01680F791F60177107D0
:1036F00001F1F11013C00217130799F48FA1080FFD
:10370000111D87FD1A95E7CF059721F5CE010E947F
:103710001A0B83E090E09E878D87D8CF021713079E
:1037200069F74D8D4195B801888199810E94FF10FC
:10373000E5CF2417350724F446E050E05E874D8737
:10374000820F931F9EA38DA3DF91CF911F910F91A5
:10375000FF90089586E090E09ECFEF92FF920F9346
:103760001F93CF93DF93EC01162F8D859E85442305
:1037700009F488C08330910528F00397B1F185E002
:1037800090E02AC069897A898B899C899B01281BD2
:10379000390BC90137FD01969595879501969EA332
:1037A0008DA31123B9F04D8D11E041274195681B80
:1037B000790B888199810E94FF104D8D4127419599
:1037C0006B897C898DA19EA1680F791F8881998161
:1037D0000E94FF1083E090E09E878D87DF91CF915C
:1037E0001F910F91FF90EF9008958DA19EA197FDDD
:1037F000C6CFCE010E947A18F12CE12C6DA17EA1DA
:10380000E616F706C4F44D8D41956B897C896E0DE3
:103810007F1D888199810E94FF104D8D4195698996
:103820007A896E197F09888199810E94FF103FEF84
:10383000E31AF30AE3CF615071097EA36DA311234C
:1038400069F277FDCBCF4D8D11E0412741958B89F2
:103850009C89680F791F888199810E94FF104D8D86
:103860004127419569897A898DA19EA1681B790BB1
:1038700088819981DF91CF911F910F91FF90EF90F7
:103880000C94FF108330910531F108F077C0019757
:1038900008F477C0CE010E94B815CE010E947A18B4
:1038A0001EA21DA2112399F04D8D01E040274195E4
:1038B00069897A89888199810E94FF104D8D4027FE
:1038C00041956B897C89888199810E94FF1083E0F2
:1038D00090E09E878D872DA13EA169897A898B8989
:1038E0009C89AB01481B590BCA0157FD0196959560
:1038F0008795821793070CF444C04D8D4195621B48
:10390000730B888199810E94FF104D8D41956B89C1
:103910007C898DA19EA1680F791F888199810E9461
:10392000FF102DA13EA12F5F3F4F3EA32DA31123DA
:1039300009F454CF69897A898B899C89AB01481B2A
:10394000590BCA0157FD01969595879582179307E4
:103950000CF444CF4D8D11E041274195621B730B50
:10396000888199810E94FF104D8D412741956B8977
:103970007C898DA19EA1680F791F7ACF059709F4E4
:1039800089CF86E090E028CFCF92DF92EF92FF922E
:103990000F931F93CF93DF93EC01162F8D859E8598
:1039A000442309F458C084309105B0F5019708F418
:1039B0003AC0CE010E947A182DA13EA190E080E08D
:1039C000111102C08FEF90E02817390739F1E8A4F0
:1039D000F9A42FA18AA59BA5820F911D27FD9A9579
:1039E0008E159F0581F10D8DC880D9806E2DC60181
:1039F0000E94E30A011180954DA1111140954823C1
:103A000001114095B701C6010E94FF108FA1E80E79
:103A1000F11C87FDFA94DDCF059759F285E090E01F
:103A20009E878D8771C0CE010E941A0B8FEF90E0A8
:103A3000111102C081E090E09EA38DA383E090E08D
:103A40009E878D87B6CF8DA19EA1112309F457C003
:103A50009595879557C08430910550F5019750F1A1
:103A6000CE010E947A18E8A4F9A42FA18AA59BA5EB
:103A7000820F911D27FD9A958E159F0559F10D8D89
:103A8000C880D9806E2DC6010E94E30A011180957D
:103A90004DA111114095482301114095B701C60170
:103AA0000E94FF108FA1E80EF11C87FDFA94DDCF74
:103AB0000597C1F4CE010E941A0B81E090E011112C
:103AC00002C08FEF90E09EA38DA383E090E09E87DD
:103AD0008D87C6CF8DA19EA1111107C0009709F057
:103AE000B7CF06C086E090E09BCF8F3F910539F4B9
:103AF00026E030E03E872D87112309F4A9CF880FF7
:103B0000991F81609EA38DA3DF91CF911F910F918B
:103B1000FF90EF90DF90CF900895AF92BF92CF9239
:103B2000DF92EF92FF920F931F93CF93DF93EC01FD
:103B3000F62EE42E8D859E85222309F4A9C08430BB
:103B4000910590F50197B8F1CE010E94B815CE010C
:103B50000E947A180DA11EA1EE2009F44BC0EE249C
:103B6000E394F11002C070E8E72ECDA0DEA08CA196
:103B700090E0019663E0880F991F6A95E1F70817B6
:103B800019070CF06FC0A880B980602FC5010E9492
:103B9000E30A9C2D191624F5FF2001F1880F2D8DC5
:103BA00021118E299150F6CF059771F285E090E0B2
:103BB0009E878D8762C087E090E09EA38DA310E072
:103BC00000E02BE030E04CA16BA1888199810E943C
:103BD000D31583E090E09E878D87B6CF8695DFCFA3
:103BE000B8016C197D09482FC5010E94FF100F5FB5
:103BF0001F4FBBCF8CA128E0829FC00111249C01E4
:103C0000201B310B8901085F1F4FEE24E394F11054
:103C100002C050E8E52ECDA0DEA08BA138E0839F46
:103C2000C001112408171907ECF0A880B980602F93
:103C3000C5010E94E30A9C2D191654F4FF2031F0AF
:103C4000880F2D8D21118E299150F6CF8695F9CFB1
:103C5000B8016C0D7D1D482FC5010E94FF10015059
:103C60001109D9CF8DA19EA1009721F425E030E064
:103C70003E872D8701979EA38DA3DF91CF911F9142
:103C80000F91FF90EF90DF90CF90BF90AF9008958D
:103C90008430910580F5019788F1EE20C1F10CA1E7
:103CA00088E0089F800111240A5F1F4F40E8B42E6E
:103CB000F11002C0BB24B394C880D9808BA128E046
:103CC000829FC0011124081719070CF450C0602FFF
:103CD000C6010E94E30A482FFF20B9F046958D8D5A
:103CE00081114B29B8016F5F7F4FC6010E94FF1001
:103CF00001501109E1CF059709F059C01EA21DA27C
:103D000083E090E09E878D87C8CF440FE8CF0BA15A
:103D100038E0039F800111240F5F1F4F30E8B32E5E
:103D2000F11002C0BB24B394C880D9808CA190E06C
:103D3000019623E0880F991F2A95E1F708171907C4
:103D4000B4F4602FC6010E94E30A482FFF2069F0F7
:103D500046958D8D81114B29B80161507109C601BD
:103D60000E94FF100F5F1F4FDFCF440FF2CF8881FB
:103D700099814D8D4195EE2091F06BA128E0629FD5
:103D8000B00111240E94FF108DA19EA187309105E2
:103D900021F426E030E03E872D8701966CCF6CA1A0
:103DA00038E0639FB0011124695F7F4FEBCF86E05D
:103DB00090E0FECECF92DF92FF920F931F93CF93AE
:103DC000DF93EC01F62E8D859E85442309F484C093
:103DD0008330910570F0039751F185E090E09E8764
:103DE0008D87DF91CF911F910F91FF90DF90CF9042
:103DF00008951EA21DA2CE010E94B815FF2099F0C1
:103E00004D8D11E04127419569897A898881998191
:103E10000E94FF104D8D412741956B897C898881D7
:103E200099810E94FF1083E090E09E878D87CE01EC
:103E30000E94B815CE010E947A180B891C898989C5
:103E40009A89801B910B97FD01966C01D594C794BC
:103E50008DA19EA1080F191FC816D9060CF4BDCF5D
:103E60000F5F1F4F69897A898DA19EA19B01281B35
:103E7000390B0217130744F44D8D4195B801888121
:103E800099810E94FF10ECCF01969EA38DA3FF2085
:103E900009F4A7CFC816D9060CF4A3CF4D8D11E0B5
:103EA00041274195681B790B888199810E94FF10F9
:103EB0004D8D412741956B897C898DA19EA1680F0D
:103EC000791F88819981DF91CF911F910F91FF9088
:103ED000DF90CF900C94FF1083309105D1F1A0F5C5
:103EE0000197A0F189899A892B893C89821B930BC0
:103EF00097FD0196959587959EA38DA3CE010E946F
:103F0000B815CE010E947A18FF20D9F04D8D11E02E
:103F10004127419569897A898DA19EA1681B790BFA
:103F2000888199810E94FF104D8D412741956B89B1
:103F30007C898DA19EA1680F791F888199810E943B
:103F4000FF1083E090E04BCF059761F286E090E0B0
:103F500046CF8DA19EA197FDF9CF4D8D41956989E1
:103F60007A89681B790B888199810E94FF104D8D99
:103F700041956B897C898DA19EA1680F791F8881ED
:103F800099810E94FF108DA19EA101979EA38DA3F0
:103F9000FF2009F426CF97FD24CF4D8D11E0412756
:103FA000419569897A897ECF8F929F92AF92BF9215
:103FB000CF92DF92EF92FF920F931F93CF93DF93F5
:103FC000EC01F62E8D859E85442309F4E0C08E0118
:103FD000095C1F4F35E0C32ED12C82309105E9F0EA
:103FE00050F08330910509F441C0049709F4A8C04A
:103FF00085E090E00FC0BE01695C7F4FCE010E945A
:104000000718811103C086E090E004C019AE18AE15
:1040100083E090E09E878D870DC01FAA88A9882322
:10402000B1F0DE86CD868D859E852FA9211116C023
:10403000059799F7DF91CF911F910F91FF90EF9026
:10404000DF90CF90BF90AF909F908F900895B80170
:10405000CE010E94C3178111E6CFE3CF059751F33C
:1040600019AE18AE83E090E09E878D878FA98823D4
:1040700029F121E02F2530E04CA16BA188819981A5
:104080000E945614888199816D8D2CA93DA948AD57
:1040900059AD662301F1BA016F5F7F4F79AF68AF09
:1040A000240F351FF90140814095FF20F1F06BA1ED
:1040B000F8E06F9FB00111240E94FF102FA988AD76
:1040C00099AD2817190609F0B5CF88A9811115C037
:1040D00082E090E09FCFBA016F5F7F4F79AF68AF0A
:1040E000240F351FF9014081E0CF6CA128E0629FC9
:1040F000B0011124695F7F4FDFCF29893A89FF2002
:10410000B1F08F859889A901481B590BCA01019606
:104110002BA158E0259F80199109112499AF88AFF0
:10412000181619060CF064CF84E090E073CF8CA1D0
:10413000E8E08E9FC00111240796821B930BEECFFF
:1041400021E0262730E04CA16BA1888199810E9453
:104150005614888199814D8D4195FF2081F06BA186
:10416000F8E06F9FB00111240E94FF1088AD99AD57
:10417000019799AF88AF892B09F05CCF39CF6CA13B
:1041800028E0629FB0011124695F7F4FEDCF84303A
:10419000910539F0059709F036CF84E090E09E87CD
:1041A0008D8721E02F2530E04CA16BA1888199817A
:1041B0000E945614888199814D8D4195FF2009F404
:1041C00045C06BA138E0639FB00111240E94FF102D
:1041D0000CA110E0ABA0B12C6801CA18DB088FEF6E
:1041E000C81AD80A23E0CC0CDD1C2A95E1F78E8D85
:1041F0009F8D009721F08C159D0508F46C010F5FD1
:104200001F4F83E0000F111F8A95E1F793E0AA0C7E
:10421000BB1C9A95E1F7FF2021F145017401EA18D2
:10422000FB0880169106DCF5682D888199810E9433
:10423000E30A90E02D8D222389F02FEF30E08217E2
:10424000930769F5EFEF8E1A9E0AE8CF6CA158E04C
:10425000659FB0011124695F7F4FB8CF30E020E047
:10426000EECF01501109F12CE12C0A151B05BCF011
:10427000602F888199810E94E30A90E02D8D22238E
:1042800059F02FEF30E08217930749F401501109DC
:10429000FFEFEF1AFF0AE9CF30E020E0F4CFEC1493
:1042A000FD0408F0B0CEC6CE2F923F924F925F929F
:1042B0006F927F928F929F92AF92BF92CF92DF9236
:1042C000EF92FF920F931F93CF93DF93CDB7DEB79B
:1042D0002B970FB6F894DEBF0FBECDBF9B838A83AA
:1042E00004969D838C8350E040E06AE070E00E9479
:1042F0007416212C198206E010E0E5E04E2E512CB8
:10430000F3E06F2E712CAA81BB8198968C919897BF
:10431000281610F00C943D2A9596ED91FC9124E41A
:10432000229EE00DF11D1124FB87EA8712A225854C
:10433000368581E02630310509F4C8C1848D882393
:1043400019F187819085B0E0A0E02530310511F1A9
:104350002FB7F894409116025091170260911802FD
:10436000709119022FBFEA85FB85C380D480E58058
:10437000F6804C195D096E097F09481759076A07CD
:104380007B0740F580E0A2C1AA85BB8519968D9177
:104390009C91D9CF2FB7F8944091160250911702F3
:1043A00060911802709119022FBFEA85FB85C380C6
:1043B000D480E580F6804C195D096E097F09C384BD
:1043C000D484F12CE12C4C155D056E057F0508F0B9
:1043D000BFCFD8CFAA85BB8512969C909110D2CF23
:1043E0002FB7F8948091160290911702A0911802AD
:1043F000B09119022FBFEA85FB8583839483A5833F
:10440000B68381E082A3A4A4B5A4A114B10409F4E5
:1044100053C185859685009709F433C0069709F442
:104420004BC1AA85BB855C963C905C97332009F410
:10443000F8C05896ED91FC913197EC31F10508F0F8
:1044400095C3EB5DFD4D0C948C363B2344236B23CD
:104450006E23752347287823EE24B925FC264626AB
:104460008627C429CB29D529CE29DE29D729E029B9
:10447000E729EA29F129F429FC29FF29032A062A38
:104480000D2AAA85BB859F96BC92AE929E97949664
:10449000EC90B8E0EB9E70011124F70137967F0194
:1044A000AA85BB8593968C91B8E08B9FE018F108A4
:1044B0001124EFEFEE1AFE0AD12CC12CD5016D911B
:1044C0005D016623C1F0EA85FB8524A935A970E06A
:1044D00043A9CF010E940A1790E0C80ED91E892B6C
:1044E00069F3D5018C91882349F3EA85FB8586A978
:1044F000C80ED11CE3CFAA85BB855096DC92CE9224
:104500001F9756968D919C918130910509F455C065
:1045100028F0029771F1992493941DC0EA85FB85D8
:1045200084A190E0019673E0880F991F7A95E1F7D6
:104530009C0121503109328B218BEC14FD0490F445
:1045400083A1F8E08F9FC0011124AA85BB855496F2
:104550009C938E93539781E09826EA85FB85958AF4
:10456000848F5FCF8C199D09EA85FB85948B838BA3
:10457000D2CFAA85BB8593968C91B8E08B9FC00162
:104580001124EA85FB85948B838BEC14FD0468F47D
:1045900084A1F8E08F9FC00111240796AA85BB85EE
:1045A00052969C938E935197D6CF0197C80ED91EE1
:1045B000EA85FB85D28AC18AAECFAA85BB85939650
:1045C0002C91B8E02B9F90011124EC14FD0498F479
:1045D000EA85FB8584A1F8E08F9FC001112407962E
:1045E000AA85BB8552969C938E93519754963C9383
:1045F0002E935397B0CFEC18FD08F694E794E20E93
:10460000F31EEA85FB85F48AE38AF1E0CF1AD1082C
:10461000CE0CDF1CAA85BB855296DC92CE925197B8
:104620007ACFAA85BB855A96ED91FC913197EC31F2
:10463000F10508F09BC2E15EFC4D0C948C362B26F4
:1046400044236B236E23752347287823EE24B92552
:10465000FC2646268627C429CB29D529CE29DE2942
:10466000D729E029E729EA29F129F429FC29FF299A
:10467000032A062A0D2A8A859B850E947A18EA85D4
:10468000FB855686458606C0432D61E08A859B855D
:104690000E948F19AA85BB855C968C915C971D96AC
:1046A0002D913C91882329F081E02530310509F4D2
:1046B00080E0EA85FB85848F81E0AA85BB851D9615
:1046C0002D913C912630310509F05CCEB981B82B93
:1046D000B983239418CE432D60E0D8CF432D61E0F9
:1046E0008A859B850E94D41FD5CF432D60E0F8CFEB
:1046F000EA85FB8585859685332009F4EAC07F012C
:10470000F7E3EF0EF11C82309105A1F130F0039731
:1047100009F45BC0AA85BB8566C26A857B85695C36
:104720007F4F8A859B850E940718811103C0AA8547
:10473000BB859AC68A859B850E94B815EA85FB854C
:1047400011AE10AE83A1F8E08F9FC0011124AA859D
:10475000BB8596969C938E93959751968D919C913F
:1047600052979B969C938E939A971E967C926E92EC
:104770001D9790CFEA85FB8517AA80A9882381F031
:10478000AA85BB851E965C924E921D97EA85FB8595
:104790008585968527A921110BC0059759F77ACFF2
:1047A000B7018A859B850E94C3178111EFCFE8CF9F
:1047B000059709F46FCFAA85BB85D9961C921E92E6
:1047C000D8971E967C926E921D97EA85FB8565A10F
:1047D00076A182A593A504A8F5A9E02DAA85BB859D
:1047E000D8962D913C91D997E20FF31F408168171D
:1047F000790751F48D919C9111975D962C9121111F
:1048000040950E94FF103BCF411135C0AA85BB8562
:1048100096969C938E939597EA85FB8585A196A1A4
:1048200022A533A582179307C1F420AD31AD43A172
:10483000F8E04F9FA0011124AA85BB8596965C9352
:104840004E9395972F5F3F4FD9963C932E93D897D1
:1048500001979B969C938E939A97EA85FB8527A94F
:1048600080AD91AD2817190609F014CF82E090E0D1
:10487000968785870FCFEA85FB85458D4195808199
:1048800091810E94FF10AA85BB8595966D917C91C0
:1048900096976F5F7F4F96967C936E9395978D91C9
:1048A0009C9111975D96EC915D97D4962D913C91DA
:1048B000D597D8964D915C91240F351FEE2331F09A
:1048C000F901408140950E94FF10A6CFD9014C917B
:1048D000FACF8130910508F42ACF8430910568F031
:1048E000059709F024CFEA85FB858189928993A7F2
:1048F00082A796A385A376866586AA85BB85CD907B
:10490000DC9011975D968C9188248A94912C81116A
:1049100002C0912C812CEA85FB85A388B488AA85E6
:10492000BB859596ED90FC906E2DC6010E94E30A22
:10493000EA85FB8522A533A58815190451F42A15AB
:104940003B053CF0C901019793A782A736A325A395
:10495000E6CF2F5F3F4F2A153B050CF4E8CEEA85E2
:10496000FB8524A1F8E02F9F90011124295F3F4F80
:10497000E216F3063CF4B7016F5F7F4F482FC60184
:104980000E94FF10AA85BB855D964C915D9741956D
:1049900095966D917C9196978D919C910E94FF10B8
:1049A000EA85FB8525A136A12F5F3F4F36A325A3BE
:1049B00084A190E0019643E0880F991F4A95E1F7A2
:1049C0002817390709F066CE82A593A59C012150CE
:1049D000310933A722A796A385A35CCEEA85FB8580
:1049E00085859685332009F467C08430910508F0E9
:1049F00042C0019708F443C08A859B850E94B81580
:104A00008A859B850E947A18EA85FB8593A0990C7C
:104A1000990C990C88248394AA85BB859596ED9072
:104A2000FC90969794968C91949790E0019623E051
:104A3000880F991F2A95E1F7A92CB12CA816B90661
:104A400074F5CD90DC90692DC6010E94E30A482FD1
:104A500050E087E090E08E199F093320D9F002C022
:104A6000559547958A95E2F7B501C6010E94FF105A
:104A700038249394D1CF059709F4BECF00CEAA85F0
:104A8000BB8596961C921E9295971E967C926E926E
:104A90001D97B2CF01C0440F8A95EAF7E5CFBFEF6B
:104AA000EB1AFB0AEA85FB85F6A2E5A2F8E0EF1611
:104AB000F10409F0EFCD2ECE8430910598F50197E1
:104AC000A0F1AA85BB8593969C90990C990C990CA2
:104AD0008824839433243394EA85FB85E5A0F6A0EB
:104AE00084A190E00196B3E0880F991FBA95E1F791
:104AF000A92CB12CA816B9065CF5C080D180692D0F
:104B0000C6010E94E30A482F50E08820D9F001C076
:104B1000440FEA94EAF7B501C6010E94FF1083240E
:104B20009394DACF059709F002CEE1E0F0E0AA8590
:104B3000BB859696FC93EE9395971E967C926E920B
:104B40001D97BFCF02C055954795EA94E2F7E3CF92
:104B5000FFEFEF1AFF0AAA85BB859696FC92EE92AC
:104B60009597B8E0EB16F10409F094CDEA85FB8542
:104B700008C4EA85FB8585859685332009F45AC0EB
:104B80008430910500F58230910500F5009781F1A0
:104B9000019709F0BFCDAA85BB8595966D917C9153
:104BA0009697CB01019696969C938E939597CD01FF
:104BB0000E9463168A859B850E947A18EA85FB8588
:104BC0007686658667CD059709F0A4CDAA85BB8555
:104BD00095966D917C9196979A968D919C919B97C5
:104BE00086179707ECF41E965C924E921D9752CD55
:104BF000AA85BB8596961C921E92959791968C914C
:104C0000919790E09B969C938E939A97CD010E94EA
:104C1000B81521E030E0EA85FB85368725873ACD57
:104C2000CB010196EA85FB8596A385A3CF010E945F
:104C3000631630CD8430910598F40197A0F0EA8591
:104C4000FB8565A176A1CB01019777FFEBCF62A52C
:104C5000CF010E9463168A859B850E94B81567CD97
:104C6000059709F064CDEA85FB8561A1862F90E068
:104C700093A782A796A385A3CF010E9463168A8576
:104C80009B850E947A18AA85BB856FCDEA85FB8536
:104C9000858596858230910509F45DC048F40097BA
:104CA00069F00197B9F031102EC186E090E0E6C0BE
:104CB0008330910509F492C00597A9F7AA85BB85B1
:104CC00096961C921E929597E1E0F0E01E96FC935A
:104CD000EE931D97AA85BB8595968D919C9196978D
:104CE000019696969C938E9395979396EC90B8E048
:104CF000EB9E70011124DD24D394EA85FB8525A168
:104D000036A184A190E00196A3E0880F991FAA958F
:104D1000E1F7E816F90694F4C70183709927821722
:104D2000930744F4458D4D254195B70180819181CC
:104D30000E94FF10FFEFEF1AFF0ADFCF82E090E042
:104D40002430310509F0A6CCAA85BB851E969C931C
:104D50008E931D979FCC8A859B850E94B815332022
:104D600021F08A859B850E947A18EA85FB8585A1BA
:104D700096A1019796A385A3E3A0F8E0EF9E7001AA
:104D80001124DD24D394AA85BB8595962D913C9161
:104D9000969794968C91949790E00196F3E0880F03
:104DA000991FFA95E1F7E816F906A4F4C701837094
:104DB00099278217930754F45D964C915D974D2582
:104DC0004195B7018D919C910E94FF10BFEFEB1AA6
:104DD000FB0AD9CF232B09F05DCCF0CE8A859B85C9
:104DE0000E94B815332009F412C18A859B850E9460
:104DF0007A1885E090E0A8CFAA85BB851D968D9195
:104E00009C918230910509F43CC038F083309105C3
:104E100009F46EC0059709F0F8C0EA85FB85E3A0A8
:104E2000F8E0EF9E70011124AA85BB8594968C91C1
:104E3000949790E00196E3E0880F991FEA95E1F7D7
:104E4000E816F906CCF45D96BC905D97CD90DC90A9
:104E50006E2DC6010E94E30AB110809545E5E0FE83
:104E60004AEA482BB1104095B701C6010E94FF10D5
:104E7000BFEFEB1AFB0AD8CF82E090E0EA85FB8512
:104E8000F7CC8A859B850E94B815332021F08A854E
:104E90009B850E947A18AA85BB859396EC90B8E012
:104EA000EB9E70011124EA85FB8584A190E00196B8
:104EB00073E0880F991F7A95E1F7E816F9060CF070
:104EC000E2CEB58CC080D1806E2DC6010E94E30A6F
:104ED000B11080954AEAE0FE45E5482BB1104095B7
:104EE000B701C6010E94FF10FFEFEF1AFF0ADBCFE8
:104EF0008A859B850E94B815332009F4D6CE8A8511
:104F00009B850E947A1885E090E0B8CFEA85FB8502
:104F1000858596858430910508F07CC0019708F45A
:104F20007CC0EA85FB8516A215A20E9454354B0170
:104F30005C010E9454356E837F8388879987AA8598
:104F4000BB859596CD90DC90BFEFCB1ADB0AEA8546
:104F5000FB85D6A2C5A2C501B4012BE030E040E03C
:104F600050E00E941D3670E09B012C533E4F7901AA
:104F7000D901BC906E817F818885998528E030E0D9
:104F800040E050E00E941D368B2D90E0062E02C0BE
:104F9000959587950A94E2F780FF05C0B8E8CB168F
:104FA000B3E1DB0614F281E090E001C0880F6A955E
:104FB000EAF7B82AF701B0828A859B850E947A18A1
:104FC000AA85BB8596961C921E9295979396BC9047
:104FD000BB0CBB0CBB0CEA85FB8584A190E0019661
:104FE00063E0880F991F6A95E1F7CB2CD12CC81686
:104FF000D90614F1E4ECF1E081918F3F09F04ACB3E
:105000002CEC31E02E173F07B9F73110F2CE86E0D5
:1050100090E09ACE059709F046CEE4ECF1E01192CB
:105020002FEC31E02E173F07D1F7AA85BB851E96DE
:105030007C926E921D9775CFAA85BB85ED90FC90F2
:105040006B2DC7010E94E30AAA85BB859596ED9159
:10505000FC91EC53FE4F4081311001C04095482334
:10506000B601C7010E94FF10EA85FB8585A196A1C4
:1050700001968B30910521F096A385A3B394ABCF15
:10508000AA85BB8596961C921E929597F7CFAA8506
:10509000BB851D968D919C913110C6C184309105C0
:1050A00008F0BEC1019778F58A859B850E941A0B8E
:1050B000EA85FB8580A591A522A533A582179307D4
:1050C00024F431A720A793A782A7AA85BB85DE96E3
:1050D0008D919C91DF97892B09F4C6C1EA85FB85E8
:1050E00083A1F8E08F9FC00111240197AA85BB8599
:1050F00096969C938E93959797961C9297971E964B
:105100007C926E921D978A859B850E947A18EA850B
:10511000FB8585A196A1019696A385A3F12C6F012D
:10512000F1E4CF0ED11CD6012C91EA85FB8565A157
:1051300076A1822F90E0F21608F0E1C04F2D50E0EA
:10514000641B750B84A190E0019633E0880F991FD2
:105150003A95E1F7681779072CF583A1F8E08F9F5E
:10516000C001112468177907ECF0AA85BB858D91E1
:105170009C91119797963C91979732039001112437
:10518000420F531FDE96ED91FC91DF97E40FF51F60
:105190005D962C91222309F4B0C0E4914E2F4095E6
:1051A0000E94FF10F394BFCFEA85FB8517A284A16C
:1051B00090E0019653E0880F991F5A95E1F796A366
:1051C00085A3768665868A859B850E947A18AA853E
:1051D000BB8595968D919C919697019796969C93F9
:1051E0008E939597F12C6D01B0E4CB0ED11CF60196
:1051F0002081AA85BB8595966D917C919697F21634
:1052000008F03AC0EF2DF0E06E0F7F1F94968C915E
:10521000949790E0019643E0880F991F4A95E1F733
:10522000681779072CF593968C91B8E08B9FC00195
:10523000112468177907E4F0AA85BB858D919C91AC
:10524000119797964C9197974203A00111244E0F06
:105250005F1FDC96ED91FC91DD97E40FF51F5D96E5
:105260002C91222339F0E4914E2F40950E94FF109B
:10527000F394BDCF4491FACF7B01B1E0EB1AF10872
:10528000EA85FB8582A593A5E816F9065CF0458DB5
:105290004195B701808191810E94FF10F1E0EF1AE2
:1052A000F108EECFAA85BB8597968C9197978F5F73
:1052B00097968C939797082E000C990BFD01EE5B47
:1052C000FF4F20812817190609F014F497961C92B5
:1052D000EA85FB8583A1F8E08F9FC0011124D601E8
:1052E0002C91821B91090197EA85FB8525A136A1A6
:1052F0002817390709F0CEC9C4C9449151CF7B01A1
:10530000E81AF90AEA85FB8582A593A5E816F9064D
:105310005CF0458D4195B701808191810E94FF101D
:10532000F1E0EF1AF108EECFAA85BB8597968C9134
:1053300097978F5F97968C939797082E000C990BF1
:10534000FD01ED5BFF4F20812817190609F014F4C9
:1053500097961C92EA85FB8584A1F8E08F9F9001C7
:105360001124295F3F4FD6018C91820F932F911DFD
:105370000196EA85FB8525A136A12817390709F092
:1053800089C91687058786C9432D60E08A859B8574
:105390000E94CF187FC9432D61E0F8CF41E0632D13
:1053A0008A859B850E94111B75C940E0F8CF41E0BA
:1053B000632D8A859B850E94581A6CC940E0F8CFFE
:1053C000432D60E08A859B850E94AD1B63C9432DF8
:1053D00061E0F8CF432D60E08A859B850E94DA1E4C
:1053E00059C9432D61E0F8CF232D41E061E08A8562
:1053F0009B850E948D1D4EC9232D40E0F7CF232DA4
:1054000041E060E0F4CF232D40E0FBCF432D61E08D
:105410008A859B850E94C41C3DC9432D60E0F8CF5E
:10542000059709F441CE83C98430910510F50197A1
:1054300008F0C9CE8A859B850E941A0BEA85FB85F8
:1054400080A591A522A533A58217930724F431A73F
:1054500020A793A782A7AA85BB85DC968D919C91F6
:10546000DD97892B09F0A0CE1E961C930E931D97F5
:1054700011C9059709F4A7CE4DC941E050E06AE093
:1054800070E08C819D810E94741689812B960FB6E5
:10549000F894DEBF0FBECDBFDF91CF911F910F916A
:1054A000FF90EF90DF90CF90BF90AF909F908F9044
:1054B0007F906F905F904F903F902F9008958F92C4
:1054C0009F92AF92BF92CF92DF92EF92FF920F9393
:1054D0001F93CF93DF93EC014B0188A521E030E0CF
:1054E000882321F0EDA1FEA126893789B12CA12CBA
:1054F000CC24C394D12CF12CE12C10E000E0A401C9
:1055000060E0CE010E94930BCE010E9454218111D4
:10551000FBCFF40101900020E9F7CF010197881932
:105520009909DF91CF911F910F91FF90EF90DF903C
:10553000CF90BF90AF909F908F900895CF93DF93BF
:10554000EB010E9407368883CE01DF91CF91089549
:105550000F931F93CF93DF938C01EB010E940736CB
:105560008883C80101960E9407368983CE01DF91A6
:10557000CF911F910F9108956FE172E090E080E06C
:105580000E94A82A6CEB71E084E190E00E94A82AB6
:105590006AEB71E088E290E00E94A82A67EB71E074
:1055A0008CE390E00E949E2A66EB71E08DE390E030
:1055B0000E949E2A65EB71E08EE390E00E949E2A95
:1055C00064EB71E08FE390E00E949E2A63EB71E050
:1055D00080E490E00E949E2A62EB71E081E490E01A
:1055E0000E949E2A82EB93E00E94B2068FE993E02C
:1055F0000E94B20680911F02909120020E94680EC4
:105600008CE893E00E94B2068091BC019091BD01AC
:105610000E94680E89E793E00E94B2068091BA0169
:105620009091BB010E94680E83E693E00E94B2064F
:105630008091B7010E94980E8BE493E00E94B2061D
:105640008091B6010E94980E85E393E00E94B20615
:105650008091B5010E94980E8DE193E00E94B20600
:105660008091B4010E94980E87E093E00E94B206F8
:105670008091B3010E94980E8FEE92E00E94B206D4
:105680008091B2010C94980EFF920F931F93CF93C9
:10569000DF938C01EB01F8800E940736F81621F0A9
:1056A0006F2DC8010E940F36CE01DF91CF911F915F
:1056B0000F91FF900895FF920F931F93CF93DF9365
:1056C000EC018B01FB01F0800E940736F81621F0F7
:1056D0006F2DCE010E940F36F801F1802196CE0188
:1056E0000E940736F81621F06F2DCE010E940F366A
:1056F000C801DF91CF911F910F91FF900895CF9333
:105700008CEB92E09093200280931F026FE172E095
:1057100090E080E00E945B2B6AE070E080E090E027
:105720000E949A0788E592E09093BD018093BC01A6
:105730006CEB71E084E190E00E945B2B6AE070E02A
:1057400080E090E00E949A0784EF91E09093BB0183
:105750008093BA016AEB71E088E290E00E945B2BD3
:105760006AE070E080E090E00E949A0787E0809312
:10577000B70167EB71E08CE390E00E94442B6AE094
:1057800070E080E090E00E949A07CEE1C093B601FD
:1057900066EB71E08DE390E00E94442B6AE070E0DC
:1057A00080E090E00E949A078FE08093B50165EB5E
:1057B00071E08EE390E00E94442B6AE070E080E0AC
:1057C00090E00E949A07C093B40164EB71E08FE30C
:1057D00090E00E94442B6AE070E080E090E00E943C
:1057E0009A0787E18093B30163EB71E080E490E076
:1057F0000E94442B6AE070E080E090E00E949A07EB
:10580000C093B20162EB71E081E490E00E94442B0E
:105810008EEC92E00E94B206CF910C94BC2ACF93FA
:10582000DF93CDB7DEB728970FB6F894DEBF0FBE73
:10583000CDBF8091A203882349F0E0919F03F091AE
:10584000A00385859685069709F05BC00E94E80C49
:1058500080916F030E94B10EBC01CE0101960E949F
:10586000D83764E871E0CE0103960E94D837809162
:1058700070030E94B10EBC01CE0104960E94D8377D
:105880008091B8019091B901892B79F58091BE0181
:105890009091BF012AE0289FB001299F700D11242B
:1058A000665F7E4F81E292E00E94D83781E090E00F
:1058B0009093B9018093B8018091A203882341F0AD
:1058C000E0919F03F091A00381E292E095A784A765
:1058D00060E08AE793E028960FB6F894DEBF0FBE2B
:1058E000CDBFDF91CF910C94820BBE016F5F7F4FD4
:1058F00081E292E00E94D8371092B9011092B8016B
:10590000DBCF28960FB6F894DEBF0FBECDBFDF9178
:10591000CF9108956F927F928F929F92AF92BF9294
:10592000CF92DF92EF92FF920F931F93CF93DF936B
:10593000CDB7DEB728970FB6F894DEBF0FBECDBF48
:105940009DE0E92E94E0F92E22E7C22E24E0D22E2B
:1059500036E8A32E34E0B32E4AE0842E8AEB92E0A0
:105960000E9423068C01892B09F0DBC0F70184918A
:10597000F6019490F5017490772009F4BDC081116F
:105980000E94ED06E72DF0E0EE0FFF1FEB52FC4FFB
:10599000A591B4918C91982231E020E009F430E097
:1059A000832F922F9093C3018093C2012091C00155
:1059B0003091C1012817390799F1892B59F5809148
:1059C0003F029091400201969093400280933F02E3
:1059D0004AE065E372E00E94CA358091A2038330F9
:1059E00050F0E0919F03F091A003EC54FF4F85E34A
:1059F00092E09183808362E08AE793E00E94820BC9
:105A00008FED93E00E94B20680913F029091400298
:105A10000E94680E62E370E080E090E00E949A07C6
:105A20008091C2019091C3019093C1018093C00104
:105A30000E94560F8091BE019091BF018130910567
:105A400009F45DC08230910509F462C0892B51F4DC
:105A50004AE0BE016F5F7F4F80911F02909120024C
:105A60000E94CA35BE016F5F7F4F8BE292E00E94B9
:105A7000D8378091A203823050F0E0919F03F091DB
:105A8000A003E059FF4F8BE292E09183808361E0B5
:105A90008AE793E00E94820B8AE793E00E945421F8
:105AA000882309F45BCF0E940F2C712C612C602F8E
:105AB0008091A203081798F4E0919F03F091A0034E
:105AC000E60DF71D85859685069769F4809EC001D1
:105AD000819E900D11248F5D9D4F95A784A78AE725
